{
  "_format": "hh-sol-artifact-1",
  "contractName": "TaniNFT",
  "sourceName": "contracts/Tani.sol",
  "abi": [
    {
      "inputs": [
        {
          "internalType": "uint256",
          "name": "_maxSupply",
          "type": "uint256"
        }
      ],
      "stateMutability": "nonpayable",
      "type": "constructor"
    },
    {
      "anonymous": false,
      "inputs": [
        {
          "indexed": true,
          "internalType": "address",
          "name": "owner",
          "type": "address"
        },
        {
          "indexed": true,
          "internalType": "address",
          "name": "approved",
          "type": "address"
        },
        {
          "indexed": true,
          "internalType": "uint256",
          "name": "tokenId",
          "type": "uint256"
        }
      ],
      "name": "Approval",
      "type": "event"
    },
    {
      "anonymous": false,
      "inputs": [
        {
          "indexed": true,
          "internalType": "address",
          "name": "owner",
          "type": "address"
        },
        {
          "indexed": true,
          "internalType": "address",
          "name": "operator",
          "type": "address"
        },
        {
          "indexed": false,
          "internalType": "bool",
          "name": "approved",
          "type": "bool"
        }
      ],
      "name": "ApprovalForAll",
      "type": "event"
    },
    {
      "anonymous": false,
      "inputs": [
        {
          "indexed": true,
          "internalType": "address",
          "name": "previousOwner",
          "type": "address"
        },
        {
          "indexed": true,
          "internalType": "address",
          "name": "newOwner",
          "type": "address"
        }
      ],
      "name": "OwnershipTransferred",
      "type": "event"
    },
    {
      "anonymous": false,
      "inputs": [
        {
          "indexed": true,
          "internalType": "address",
          "name": "from",
          "type": "address"
        },
        {
          "indexed": true,
          "internalType": "address",
          "name": "to",
          "type": "address"
        },
        {
          "indexed": true,
          "internalType": "uint256",
          "name": "tokenId",
          "type": "uint256"
        }
      ],
      "name": "Transfer",
      "type": "event"
    },
    {
      "inputs": [
        {
          "internalType": "bytes32[]",
          "name": "proof",
          "type": "bytes32[]"
        }
      ],
      "name": "MintNft",
      "outputs": [],
      "stateMutability": "nonpayable",
      "type": "function"
    },
    {
      "inputs": [
        {
          "internalType": "uint256",
          "name": "",
          "type": "uint256"
        }
      ],
      "name": "addresses",
      "outputs": [
        {
          "internalType": "address",
          "name": "",
          "type": "address"
        }
      ],
      "stateMutability": "view",
      "type": "function"
    },
    {
      "inputs": [
        {
          "internalType": "address",
          "name": "to",
          "type": "address"
        },
        {
          "internalType": "uint256",
          "name": "tokenId",
          "type": "uint256"
        }
      ],
      "name": "approve",
      "outputs": [],
      "stateMutability": "nonpayable",
      "type": "function"
    },
    {
      "inputs": [
        {
          "internalType": "address",
          "name": "owner",
          "type": "address"
        }
      ],
      "name": "balanceOf",
      "outputs": [
        {
          "internalType": "uint256",
          "name": "",
          "type": "uint256"
        }
      ],
      "stateMutability": "view",
      "type": "function"
    },
    {
      "inputs": [],
      "name": "baseURIextended",
      "outputs": [
        {
          "internalType": "string",
          "name": "",
          "type": "string"
        }
      ],
      "stateMutability": "view",
      "type": "function"
    },
    {
      "inputs": [],
      "name": "getAddresses",
      "outputs": [
        {
          "internalType": "address[]",
          "name": "",
          "type": "address[]"
        }
      ],
      "stateMutability": "view",
      "type": "function"
    },
    {
      "inputs": [
        {
          "internalType": "uint256",
          "name": "tokenId",
          "type": "uint256"
        }
      ],
      "name": "getApproved",
      "outputs": [
        {
          "internalType": "address",
          "name": "",
          "type": "address"
        }
      ],
      "stateMutability": "view",
      "type": "function"
    },
    {
      "inputs": [
        {
          "internalType": "address",
          "name": "owner",
          "type": "address"
        },
        {
          "internalType": "address",
          "name": "operator",
          "type": "address"
        }
      ],
      "name": "isApprovedForAll",
      "outputs": [
        {
          "internalType": "bool",
          "name": "",
          "type": "bool"
        }
      ],
      "stateMutability": "view",
      "type": "function"
    },
    {
      "inputs": [
        {
          "internalType": "bytes32[]",
          "name": "proof",
          "type": "bytes32[]"
        },
        {
          "internalType": "bytes32",
          "name": "leaf",
          "type": "bytes32"
        }
      ],
      "name": "isValid",
      "outputs": [
        {
          "internalType": "bool",
          "name": "",
          "type": "bool"
        }
      ],
      "stateMutability": "view",
      "type": "function"
    },
    {
      "inputs": [],
      "name": "joinWl",
      "outputs": [],
      "stateMutability": "nonpayable",
      "type": "function"
    },
    {
      "inputs": [],
      "name": "maxSupply",
      "outputs": [
        {
          "internalType": "uint256",
          "name": "",
          "type": "uint256"
        }
      ],
      "stateMutability": "view",
      "type": "function"
    },
    {
      "inputs": [
        {
          "internalType": "address",
          "name": "",
          "type": "address"
        }
      ],
      "name": "minted",
      "outputs": [
        {
          "internalType": "bool",
          "name": "",
          "type": "bool"
        }
      ],
      "stateMutability": "view",
      "type": "function"
    },
    {
      "inputs": [],
      "name": "name",
      "outputs": [
        {
          "internalType": "string",
          "name": "",
          "type": "string"
        }
      ],
      "stateMutability": "view",
      "type": "function"
    },
    {
      "inputs": [],
      "name": "notPaused",
      "outputs": [
        {
          "internalType": "bool",
          "name": "",
          "type": "bool"
        }
      ],
      "stateMutability": "view",
      "type": "function"
    },
    {
      "inputs": [],
      "name": "owner",
      "outputs": [
        {
          "internalType": "address",
          "name": "",
          "type": "address"
        }
      ],
      "stateMutability": "view",
      "type": "function"
    },
    {
      "inputs": [
        {
          "internalType": "uint256",
          "name": "tokenId",
          "type": "uint256"
        }
      ],
      "name": "ownerOf",
      "outputs": [
        {
          "internalType": "address",
          "name": "",
          "type": "address"
        }
      ],
      "stateMutability": "view",
      "type": "function"
    },
    {
      "inputs": [],
      "name": "pausable",
      "outputs": [],
      "stateMutability": "nonpayable",
      "type": "function"
    },
    {
      "inputs": [],
      "name": "renounceOwnership",
      "outputs": [],
      "stateMutability": "nonpayable",
      "type": "function"
    },
    {
      "inputs": [],
      "name": "revealed",
      "outputs": [
        {
          "internalType": "bool",
          "name": "",
          "type": "bool"
        }
      ],
      "stateMutability": "view",
      "type": "function"
    },
    {
      "inputs": [],
      "name": "root",
      "outputs": [
        {
          "internalType": "bytes32",
          "name": "",
          "type": "bytes32"
        }
      ],
      "stateMutability": "view",
      "type": "function"
    },
    {
      "inputs": [
        {
          "internalType": "address",
          "name": "from",
          "type": "address"
        },
        {
          "internalType": "address",
          "name": "to",
          "type": "address"
        },
        {
          "internalType": "uint256",
          "name": "tokenId",
          "type": "uint256"
        }
      ],
      "name": "safeTransferFrom",
      "outputs": [],
      "stateMutability": "nonpayable",
      "type": "function"
    },
    {
      "inputs": [
        {
          "internalType": "address",
          "name": "from",
          "type": "address"
        },
        {
          "internalType": "address",
          "name": "to",
          "type": "address"
        },
        {
          "internalType": "uint256",
          "name": "tokenId",
          "type": "uint256"
        },
        {
          "internalType": "bytes",
          "name": "data",
          "type": "bytes"
        }
      ],
      "name": "safeTransferFrom",
      "outputs": [],
      "stateMutability": "nonpayable",
      "type": "function"
    },
    {
      "inputs": [
        {
          "internalType": "address",
          "name": "operator",
          "type": "address"
        },
        {
          "internalType": "bool",
          "name": "approved",
          "type": "bool"
        }
      ],
      "name": "setApprovalForAll",
      "outputs": [],
      "stateMutability": "nonpayable",
      "type": "function"
    },
    {
      "inputs": [
        {
          "internalType": "string",
          "name": "_baseUri",
          "type": "string"
        }
      ],
      "name": "setBaseURI",
      "outputs": [],
      "stateMutability": "nonpayable",
      "type": "function"
    },
    {
      "inputs": [],
      "name": "setRevealed",
      "outputs": [],
      "stateMutability": "nonpayable",
      "type": "function"
    },
    {
      "inputs": [
        {
          "internalType": "bytes32",
          "name": "_root",
          "type": "bytes32"
        }
      ],
      "name": "setRoot",
      "outputs": [],
      "stateMutability": "nonpayable",
      "type": "function"
    },
    {
      "inputs": [
        {
          "internalType": "bytes4",
          "name": "interfaceId",
          "type": "bytes4"
        }
      ],
      "name": "supportsInterface",
      "outputs": [
        {
          "internalType": "bool",
          "name": "",
          "type": "bool"
        }
      ],
      "stateMutability": "view",
      "type": "function"
    },
    {
      "inputs": [],
      "name": "symbol",
      "outputs": [
        {
          "internalType": "string",
          "name": "",
          "type": "string"
        }
      ],
      "stateMutability": "view",
      "type": "function"
    },
    {
      "inputs": [
        {
          "internalType": "uint256",
          "name": "tokenId",
          "type": "uint256"
        }
      ],
      "name": "tokenURI",
      "outputs": [
        {
          "internalType": "string",
          "name": "",
          "type": "string"
        }
      ],
      "stateMutability": "view",
      "type": "function"
    },
    {
      "inputs": [],
      "name": "totalSupply",
      "outputs": [
        {
          "internalType": "uint256",
          "name": "",
          "type": "uint256"
        }
      ],
      "stateMutability": "view",
      "type": "function"
    },
    {
      "inputs": [
        {
          "internalType": "address",
          "name": "from",
          "type": "address"
        },
        {
          "internalType": "address",
          "name": "to",
          "type": "address"
        },
        {
          "internalType": "uint256",
          "name": "tokenId",
          "type": "uint256"
        }
      ],
      "name": "transferFrom",
      "outputs": [],
      "stateMutability": "nonpayable",
      "type": "function"
    },
    {
      "inputs": [
        {
          "internalType": "address",
          "name": "newOwner",
          "type": "address"
        }
      ],
      "name": "transferOwnership",
      "outputs": [],
      "stateMutability": "nonpayable",
      "type": "function"
    },
    {
      "inputs": [
        {
          "internalType": "address",
          "name": "",
          "type": "address"
        }
      ],
      "name": "wl",
      "outputs": [
        {
          "internalType": "bool",
          "name": "",
          "type": "bool"
        }
      ],
      "stateMutability": "view",
      "type": "function"
    }
  ],
  "bytecode": "0x60806040523480156200001157600080fd5b5060405162003d6d38038062003d6d8339818101604052810190620000379190620002c3565b6040518060400160405280600c81526020017f54616e696d306c61204e465400000000000000000000000000000000000000008152506040518060400160405280600881526020017f74616e696d306c610000000000000000000000000000000000000000000000008152508160009080519060200190620000bb929190620001d3565b508060019080519060200190620000d4929190620001d3565b505050620000f7620000eb6200010560201b60201c565b6200010d60201b60201c565b80600981905550506200035a565b600033905090565b6000600660009054906101000a900473ffffffffffffffffffffffffffffffffffffffff16905081600660006101000a81548173ffffffffffffffffffffffffffffffffffffffff021916908373ffffffffffffffffffffffffffffffffffffffff1602179055508173ffffffffffffffffffffffffffffffffffffffff168173ffffffffffffffffffffffffffffffffffffffff167f8be0079c531659141344cd1fd0a4f28419497f9722a3daafe3b4186f6b6457e060405160405180910390a35050565b828054620001e19062000324565b90600052602060002090601f01602090048101928262000205576000855562000251565b82601f106200022057805160ff191683800117855562000251565b8280016001018555821562000251579182015b828111156200025057825182559160200191906001019062000233565b5b50905062000260919062000264565b5090565b5b808211156200027f57600081600090555060010162000265565b5090565b600080fd5b6000819050919050565b6200029d8162000288565b8114620002a957600080fd5b50565b600081519050620002bd8162000292565b92915050565b600060208284031215620002dc57620002db62000283565b5b6000620002ec84828501620002ac565b91505092915050565b7f4e487b7100000000000000000000000000000000000000000000000000000000600052602260045260246000fd5b600060028204905060018216806200033d57607f821691505b60208210811415620003545762000353620002f5565b5b50919050565b613a03806200036a6000396000f3fe608060405234801561001057600080fd5b50600436106101fb5760003560e01c80636352211e1161011a578063b8a20ed0116100ad578063e05ca6331161007c578063e05ca63314610578578063e985e9c514610596578063ebf0c717146105c6578063edf26d9b146105e4578063f2fde38b14610614576101fb565b8063b8a20ed0146104de578063c87b56dd1461050e578063d5abeb011461053e578063dab5f3401461055c576101fb565b806395d89b41116100e957806395d89b411461046a578063a22cb46514610488578063a39fac12146104a4578063b88d4fde146104c2576101fb565b80636352211e146103e257806370a0823114610412578063715018a6146104425780638da5cb5b1461044c576101fb565b80631e7269c5116101925780633bd64968116101615780633bd649681461038257806342842e0e1461038c57806351830227146103a857806355f804b3146103c6576101fb565b80631e7269c5146102fc57806323b872dd1461032c5780632fee9e7e146103485780633677584714610378576101fb565b8063095ea7b3116101ce578063095ea7b3146102885780630d449db0146102a457806318160ddd146102c25780631d3b5ad4146102e0576101fb565b8063017929b41461020057806301ffc9a71461020a57806306fdde031461023a578063081812fc14610258575b600080fd5b610208610630565b005b610224600480360381019061021f91906123b5565b6107c0565b60405161023191906123fd565b60405180910390f35b6102426108a2565b60405161024f91906124b1565b60405180910390f35b610272600480360381019061026d9190612509565b610934565b60405161027f9190612577565b60405180910390f35b6102a2600480360381019061029d91906125be565b61097a565b005b6102ac610a92565b6040516102b991906124b1565b60405180910390f35b6102ca610b20565b6040516102d7919061260d565b60405180910390f35b6102fa60048036038101906102f591906127a6565b610b26565b005b610316600480360381019061031191906127ef565b610d36565b60405161032391906123fd565b60405180910390f35b6103466004803603810190610341919061281c565b610d56565b005b610362600480360381019061035d91906127ef565b610db6565b60405161036f91906123fd565b60405180910390f35b610380610dd6565b005b61038a610e0a565b005b6103a660048036038101906103a1919061281c565b610e2f565b005b6103b0610e4f565b6040516103bd91906123fd565b60405180910390f35b6103e060048036038101906103db9190612924565b610e62565b005b6103fc60048036038101906103f79190612509565b610e84565b6040516104099190612577565b60405180910390f35b61042c600480360381019061042791906127ef565b610f36565b604051610439919061260d565b60405180910390f35b61044a610fee565b005b610454611002565b6040516104619190612577565b60405180910390f35b61047261102c565b60405161047f91906124b1565b60405180910390f35b6104a2600480360381019061049d9190612999565b6110be565b005b6104ac6110d4565b6040516104b99190612a97565b60405180910390f35b6104dc60048036038101906104d79190612b5a565b611162565b005b6104f860048036038101906104f39190612bdd565b6111c4565b60405161050591906123fd565b60405180910390f35b61052860048036038101906105239190612509565b6111db565b60405161053591906124b1565b60405180910390f35b610546611212565b604051610553919061260d565b60405180910390f35b61057660048036038101906105719190612c39565b611218565b005b61058061122a565b60405161058d91906123fd565b60405180910390f35b6105b060048036038101906105ab9190612c66565b61123d565b6040516105bd91906123fd565b60405180910390f35b6105ce6112d1565b6040516105db9190612cb5565b60405180910390f35b6105fe60048036038101906105f99190612509565b6112d7565b60405161060b9190612577565b60405180910390f35b61062e600480360381019061062991906127ef565b611316565b005b600d60003373ffffffffffffffffffffffffffffffffffffffff1673ffffffffffffffffffffffffffffffffffffffff16815260200190815260200160002060009054906101000a900460ff16156106bd576040517f08c379a00000000000000000000000000000000000000000000000000000000081526004016106b490612d1c565b60405180910390fd5b60095460085410610703576040517f08c379a00000000000000000000000000000000000000000000000000000000081526004016106fa90612d88565b60405180910390fd5b6001600d60003373ffffffffffffffffffffffffffffffffffffffff1673ffffffffffffffffffffffffffffffffffffffff16815260200190815260200160002060006101000a81548160ff021916908315150217905550600b339080600181540180825580915050600190039060005260206000200160009091909190916101000a81548173ffffffffffffffffffffffffffffffffffffffff021916908373ffffffffffffffffffffffffffffffffffffffff160217905550565b60007f80ac58cd000000000000000000000000000000000000000000000000000000007bffffffffffffffffffffffffffffffffffffffffffffffffffffffff1916827bffffffffffffffffffffffffffffffffffffffffffffffffffffffff1916148061088b57507f5b5e139f000000000000000000000000000000000000000000000000000000007bffffffffffffffffffffffffffffffffffffffffffffffffffffffff1916827bffffffffffffffffffffffffffffffffffffffffffffffffffffffff1916145b8061089b575061089a8261139a565b5b9050919050565b6060600080546108b190612dd7565b80601f01602080910402602001604051908101604052809291908181526020018280546108dd90612dd7565b801561092a5780601f106108ff5761010080835404028352916020019161092a565b820191906000526020600020905b81548152906001019060200180831161090d57829003601f168201915b5050505050905090565b600061093f82611404565b6004600083815260200190815260200160002060009054906101000a900473ffffffffffffffffffffffffffffffffffffffff169050919050565b600061098582610e84565b90508073ffffffffffffffffffffffffffffffffffffffff168373ffffffffffffffffffffffffffffffffffffffff1614156109f6576040517f08c379a00000000000000000000000000000000000000000000000000000000081526004016109ed90612e7b565b60405180910390fd5b8073ffffffffffffffffffffffffffffffffffffffff16610a1561144f565b73ffffffffffffffffffffffffffffffffffffffff161480610a445750610a4381610a3e61144f565b61123d565b5b610a83576040517f08c379a0000000000000000000000000000000000000000000000000000000008152600401610a7a90612f0d565b60405180910390fd5b610a8d8383611457565b505050565b60078054610a9f90612dd7565b80601f0160208091040260200160405190810160405280929190818152602001828054610acb90612dd7565b8015610b185780601f10610aed57610100808354040283529160200191610b18565b820191906000526020600020905b815481529060010190602001808311610afb57829003601f168201915b505050505081565b60085481565b600a60009054906101000a900460ff16610b75576040517f08c379a0000000000000000000000000000000000000000000000000000000008152600401610b6c90612f79565b60405180910390fd5b610ba58133604051602001610b8a9190612fe1565b604051602081830303815290604052805190602001206111c4565b610be4576040517f08c379a0000000000000000000000000000000000000000000000000000000008152600401610bdb90613048565b60405180910390fd5b60095460085410610c2a576040517f08c379a0000000000000000000000000000000000000000000000000000000008152600401610c21906130b4565b60405180910390fd5b600c60003373ffffffffffffffffffffffffffffffffffffffff1673ffffffffffffffffffffffffffffffffffffffff16815260200190815260200160002060009054906101000a900460ff1615610cb7576040517f08c379a0000000000000000000000000000000000000000000000000000000008152600401610cae90613120565b60405180910390fd5b6001600c60003373ffffffffffffffffffffffffffffffffffffffff1673ffffffffffffffffffffffffffffffffffffffff16815260200190815260200160002060006101000a81548160ff021916908315150217905550610d1b33600854611510565b60086000815480929190610d2e9061316f565b919050555050565b600c6020528060005260406000206000915054906101000a900460ff1681565b610d67610d6161144f565b8261152e565b610da6576040517f08c379a0000000000000000000000000000000000000000000000000000000008152600401610d9d9061322a565b60405180910390fd5b610db18383836115c3565b505050565b600d6020528060005260406000206000915054906101000a900460ff1681565b610dde61182a565b600a60009054906101000a900460ff1615600a60006101000a81548160ff021916908315150217905550565b610e1261182a565b6001600a60016101000a81548160ff021916908315150217905550565b610e4a83838360405180602001604052806000815250611162565b505050565b600a60019054906101000a900460ff1681565b610e6a61182a565b8060079080519060200190610e809291906122a6565b5050565b6000806002600084815260200190815260200160002060009054906101000a900473ffffffffffffffffffffffffffffffffffffffff169050600073ffffffffffffffffffffffffffffffffffffffff168173ffffffffffffffffffffffffffffffffffffffff161415610f2d576040517f08c379a0000000000000000000000000000000000000000000000000000000008152600401610f2490613296565b60405180910390fd5b80915050919050565b60008073ffffffffffffffffffffffffffffffffffffffff168273ffffffffffffffffffffffffffffffffffffffff161415610fa7576040517f08c379a0000000000000000000000000000000000000000000000000000000008152600401610f9e90613328565b60405180910390fd5b600360008373ffffffffffffffffffffffffffffffffffffffff1673ffffffffffffffffffffffffffffffffffffffff168152602001908152602001600020549050919050565b610ff661182a565b61100060006118a8565b565b6000600660009054906101000a900473ffffffffffffffffffffffffffffffffffffffff16905090565b60606001805461103b90612dd7565b80601f016020809104026020016040519081016040528092919081815260200182805461106790612dd7565b80156110b45780601f10611089576101008083540402835291602001916110b4565b820191906000526020600020905b81548152906001019060200180831161109757829003601f168201915b5050505050905090565b6110d06110c961144f565b838361196e565b5050565b6060600b80548060200260200160405190810160405280929190818152602001828054801561115857602002820191906000526020600020905b8160009054906101000a900473ffffffffffffffffffffffffffffffffffffffff1673ffffffffffffffffffffffffffffffffffffffff168152602001906001019080831161110e575b5050505050905090565b61117361116d61144f565b8361152e565b6111b2576040517f08c379a00000000000000000000000000000000000000000000000000000000081526004016111a99061322a565b60405180910390fd5b6111be84848484611adb565b50505050565b60006111d383600e5484611b37565b905092915050565b6060600a60019054906101000a900460ff1615611202576111fb82611b4e565b905061120d565b61120a611bb6565b90505b919050565b60095481565b61122061182a565b80600e8190555050565b600a60009054906101000a900460ff1681565b6000600560008473ffffffffffffffffffffffffffffffffffffffff1673ffffffffffffffffffffffffffffffffffffffff16815260200190815260200160002060008373ffffffffffffffffffffffffffffffffffffffff1673ffffffffffffffffffffffffffffffffffffffff16815260200190815260200160002060009054906101000a900460ff16905092915050565b600e5481565b600b81815481106112e757600080fd5b906000526020600020016000915054906101000a900473ffffffffffffffffffffffffffffffffffffffff1681565b61131e61182a565b600073ffffffffffffffffffffffffffffffffffffffff168173ffffffffffffffffffffffffffffffffffffffff16141561138e576040517f08c379a0000000000000000000000000000000000000000000000000000000008152600401611385906133ba565b60405180910390fd5b611397816118a8565b50565b60007f01ffc9a7000000000000000000000000000000000000000000000000000000007bffffffffffffffffffffffffffffffffffffffffffffffffffffffff1916827bffffffffffffffffffffffffffffffffffffffffffffffffffffffff1916149050919050565b61140d81611c48565b61144c576040517f08c379a000000000000000000000000000000000000000000000000000000000815260040161144390613296565b60405180910390fd5b50565b600033905090565b816004600083815260200190815260200160002060006101000a81548173ffffffffffffffffffffffffffffffffffffffff021916908373ffffffffffffffffffffffffffffffffffffffff160217905550808273ffffffffffffffffffffffffffffffffffffffff166114ca83610e84565b73ffffffffffffffffffffffffffffffffffffffff167f8c5be1e5ebec7d5bd14f71427d1e84f3dd0314c0f7b2291e5b200ac8c7c3b92560405160405180910390a45050565b61152a828260405180602001604052806000815250611cb4565b5050565b60008061153a83610e84565b90508073ffffffffffffffffffffffffffffffffffffffff168473ffffffffffffffffffffffffffffffffffffffff16148061157c575061157b818561123d565b5b806115ba57508373ffffffffffffffffffffffffffffffffffffffff166115a284610934565b73ffffffffffffffffffffffffffffffffffffffff16145b91505092915050565b8273ffffffffffffffffffffffffffffffffffffffff166115e382610e84565b73ffffffffffffffffffffffffffffffffffffffff1614611639576040517f08c379a00000000000000000000000000000000000000000000000000000000081526004016116309061344c565b60405180910390fd5b600073ffffffffffffffffffffffffffffffffffffffff168273ffffffffffffffffffffffffffffffffffffffff1614156116a9576040517f08c379a00000000000000000000000000000000000000000000000000000000081526004016116a0906134de565b60405180910390fd5b6116b4838383611d0f565b6116bf600082611457565b6001600360008573ffffffffffffffffffffffffffffffffffffffff1673ffffffffffffffffffffffffffffffffffffffff168152602001908152602001600020600082825461170f91906134fe565b925050819055506001600360008473ffffffffffffffffffffffffffffffffffffffff1673ffffffffffffffffffffffffffffffffffffffff16815260200190815260200160002060008282546117669190613532565b92505081905550816002600083815260200190815260200160002060006101000a81548173ffffffffffffffffffffffffffffffffffffffff021916908373ffffffffffffffffffffffffffffffffffffffff160217905550808273ffffffffffffffffffffffffffffffffffffffff168473ffffffffffffffffffffffffffffffffffffffff167fddf252ad1be2c89b69c2b068fc378daa952ba7f163c4a11628f55a4df523b3ef60405160405180910390a4611825838383611d14565b505050565b61183261144f565b73ffffffffffffffffffffffffffffffffffffffff16611850611002565b73ffffffffffffffffffffffffffffffffffffffff16146118a6576040517f08c379a000000000000000000000000000000000000000000000000000000000815260040161189d906135d4565b60405180910390fd5b565b6000600660009054906101000a900473ffffffffffffffffffffffffffffffffffffffff16905081600660006101000a81548173ffffffffffffffffffffffffffffffffffffffff021916908373ffffffffffffffffffffffffffffffffffffffff1602179055508173ffffffffffffffffffffffffffffffffffffffff168173ffffffffffffffffffffffffffffffffffffffff167f8be0079c531659141344cd1fd0a4f28419497f9722a3daafe3b4186f6b6457e060405160405180910390a35050565b8173ffffffffffffffffffffffffffffffffffffffff168373ffffffffffffffffffffffffffffffffffffffff1614156119dd576040517f08c379a00000000000000000000000000000000000000000000000000000000081526004016119d490613640565b60405180910390fd5b80600560008573ffffffffffffffffffffffffffffffffffffffff1673ffffffffffffffffffffffffffffffffffffffff16815260200190815260200160002060008473ffffffffffffffffffffffffffffffffffffffff1673ffffffffffffffffffffffffffffffffffffffff16815260200190815260200160002060006101000a81548160ff0219169083151502179055508173ffffffffffffffffffffffffffffffffffffffff168373ffffffffffffffffffffffffffffffffffffffff167f17307eab39ab6107e8899845ad3d59bd9653f200f220920489ca2b5937696c3183604051611ace91906123fd565b60405180910390a3505050565b611ae68484846115c3565b611af284848484611d19565b611b31576040517f08c379a0000000000000000000000000000000000000000000000000000000008152600401611b28906136d2565b60405180910390fd5b50505050565b600082611b448584611eb0565b1490509392505050565b6060611b5982611404565b6000611b63611bb6565b90506000815111611b835760405180602001604052806000815250611bae565b80611b8d84611f06565b604051602001611b9e92919061372e565b6040516020818303038152906040525b915050919050565b606060078054611bc590612dd7565b80601f0160208091040260200160405190810160405280929190818152602001828054611bf190612dd7565b8015611c3e5780601f10611c1357610100808354040283529160200191611c3e565b820191906000526020600020905b815481529060010190602001808311611c2157829003601f168201915b5050505050905090565b60008073ffffffffffffffffffffffffffffffffffffffff166002600084815260200190815260200160002060009054906101000a900473ffffffffffffffffffffffffffffffffffffffff1673ffffffffffffffffffffffffffffffffffffffff1614159050919050565b611cbe8383612067565b611ccb6000848484611d19565b611d0a576040517f08c379a0000000000000000000000000000000000000000000000000000000008152600401611d01906136d2565b60405180910390fd5b505050565b505050565b505050565b6000611d3a8473ffffffffffffffffffffffffffffffffffffffff16612241565b15611ea3578373ffffffffffffffffffffffffffffffffffffffff1663150b7a02611d6361144f565b8786866040518563ffffffff1660e01b8152600401611d8594939291906137a7565b602060405180830381600087803b158015611d9f57600080fd5b505af1925050508015611dd057506040513d601f19601f82011682018060405250810190611dcd9190613808565b60015b611e53573d8060008114611e00576040519150601f19603f3d011682016040523d82523d6000602084013e611e05565b606091505b50600081511415611e4b576040517f08c379a0000000000000000000000000000000000000000000000000000000008152600401611e42906136d2565b60405180910390fd5b805181602001fd5b63150b7a0260e01b7bffffffffffffffffffffffffffffffffffffffffffffffffffffffff1916817bffffffffffffffffffffffffffffffffffffffffffffffffffffffff191614915050611ea8565b600190505b949350505050565b60008082905060005b8451811015611efb57611ee682868381518110611ed957611ed8613835565b5b6020026020010151612264565b91508080611ef39061316f565b915050611eb9565b508091505092915050565b60606000821415611f4e576040518060400160405280600181526020017f30000000000000000000000000000000000000000000000000000000000000008152509050612062565b600082905060005b60008214611f80578080611f699061316f565b915050600a82611f799190613893565b9150611f56565b60008167ffffffffffffffff811115611f9c57611f9b61262d565b5b6040519080825280601f01601f191660200182016040528015611fce5781602001600182028036833780820191505090505b5090505b6000851461205b57600182611fe791906134fe565b9150600a85611ff691906138c4565b60306120029190613532565b60f81b81838151811061201857612017613835565b5b60200101907effffffffffffffffffffffffffffffffffffffffffffffffffffffffffffff1916908160001a905350600a856120549190613893565b9450611fd2565b8093505050505b919050565b600073ffffffffffffffffffffffffffffffffffffffff168273ffffffffffffffffffffffffffffffffffffffff1614156120d7576040517f08c379a00000000000000000000000000000000000000000000000000000000081526004016120ce90613941565b60405180910390fd5b6120e081611c48565b15612120576040517f08c379a0000000000000000000000000000000000000000000000000000000008152600401612117906139ad565b60405180910390fd5b61212c60008383611d0f565b6001600360008473ffffffffffffffffffffffffffffffffffffffff1673ffffffffffffffffffffffffffffffffffffffff168152602001908152602001600020600082825461217c9190613532565b92505081905550816002600083815260200190815260200160002060006101000a81548173ffffffffffffffffffffffffffffffffffffffff021916908373ffffffffffffffffffffffffffffffffffffffff160217905550808273ffffffffffffffffffffffffffffffffffffffff16600073ffffffffffffffffffffffffffffffffffffffff167fddf252ad1be2c89b69c2b068fc378daa952ba7f163c4a11628f55a4df523b3ef60405160405180910390a461223d60008383611d14565b5050565b6000808273ffffffffffffffffffffffffffffffffffffffff163b119050919050565b600081831061227c57612277828461228f565b612287565b612286838361228f565b5b905092915050565b600082600052816020526040600020905092915050565b8280546122b290612dd7565b90600052602060002090601f0160209004810192826122d4576000855561231b565b82601f106122ed57805160ff191683800117855561231b565b8280016001018555821561231b579182015b8281111561231a5782518255916020019190600101906122ff565b5b509050612328919061232c565b5090565b5b8082111561234557600081600090555060010161232d565b5090565b6000604051905090565b600080fd5b600080fd5b60007fffffffff0000000000000000000000000000000000000000000000000000000082169050919050565b6123928161235d565b811461239d57600080fd5b50565b6000813590506123af81612389565b92915050565b6000602082840312156123cb576123ca612353565b5b60006123d9848285016123a0565b91505092915050565b60008115159050919050565b6123f7816123e2565b82525050565b600060208201905061241260008301846123ee565b92915050565b600081519050919050565b600082825260208201905092915050565b60005b83811015612452578082015181840152602081019050612437565b83811115612461576000848401525b50505050565b6000601f19601f8301169050919050565b600061248382612418565b61248d8185612423565b935061249d818560208601612434565b6124a681612467565b840191505092915050565b600060208201905081810360008301526124cb8184612478565b905092915050565b6000819050919050565b6124e6816124d3565b81146124f157600080fd5b50565b600081359050612503816124dd565b92915050565b60006020828403121561251f5761251e612353565b5b600061252d848285016124f4565b91505092915050565b600073ffffffffffffffffffffffffffffffffffffffff82169050919050565b600061256182612536565b9050919050565b61257181612556565b82525050565b600060208201905061258c6000830184612568565b92915050565b61259b81612556565b81146125a657600080fd5b50565b6000813590506125b881612592565b92915050565b600080604083850312156125d5576125d4612353565b5b60006125e3858286016125a9565b92505060206125f4858286016124f4565b9150509250929050565b612607816124d3565b82525050565b600060208201905061262260008301846125fe565b92915050565b600080fd5b7f4e487b7100000000000000000000000000000000000000000000000000000000600052604160045260246000fd5b61266582612467565b810181811067ffffffffffffffff821117156126845761268361262d565b5b80604052505050565b6000612697612349565b90506126a3828261265c565b919050565b600067ffffffffffffffff8211156126c3576126c261262d565b5b602082029050602081019050919050565b600080fd5b6000819050919050565b6126ec816126d9565b81146126f757600080fd5b50565b600081359050612709816126e3565b92915050565b600061272261271d846126a8565b61268d565b90508083825260208201905060208402830185811115612745576127446126d4565b5b835b8181101561276e578061275a88826126fa565b845260208401935050602081019050612747565b5050509392505050565b600082601f83011261278d5761278c612628565b5b813561279d84826020860161270f565b91505092915050565b6000602082840312156127bc576127bb612353565b5b600082013567ffffffffffffffff8111156127da576127d9612358565b5b6127e684828501612778565b91505092915050565b60006020828403121561280557612804612353565b5b6000612813848285016125a9565b91505092915050565b60008060006060848603121561283557612834612353565b5b6000612843868287016125a9565b9350506020612854868287016125a9565b9250506040612865868287016124f4565b9150509250925092565b600080fd5b600067ffffffffffffffff82111561288f5761288e61262d565b5b61289882612467565b9050602081019050919050565b82818337600083830152505050565b60006128c76128c284612874565b61268d565b9050828152602081018484840111156128e3576128e261286f565b5b6128ee8482856128a5565b509392505050565b600082601f83011261290b5761290a612628565b5b813561291b8482602086016128b4565b91505092915050565b60006020828403121561293a57612939612353565b5b600082013567ffffffffffffffff81111561295857612957612358565b5b612964848285016128f6565b91505092915050565b612976816123e2565b811461298157600080fd5b50565b6000813590506129938161296d565b92915050565b600080604083850312156129b0576129af612353565b5b60006129be858286016125a9565b92505060206129cf85828601612984565b9150509250929050565b600081519050919050565b600082825260208201905092915050565b6000819050602082019050919050565b612a0e81612556565b82525050565b6000612a208383612a05565b60208301905092915050565b6000602082019050919050565b6000612a44826129d9565b612a4e81856129e4565b9350612a59836129f5565b8060005b83811015612a8a578151612a718882612a14565b9750612a7c83612a2c565b925050600181019050612a5d565b5085935050505092915050565b60006020820190508181036000830152612ab18184612a39565b905092915050565b600067ffffffffffffffff821115612ad457612ad361262d565b5b612add82612467565b9050602081019050919050565b6000612afd612af884612ab9565b61268d565b905082815260208101848484011115612b1957612b1861286f565b5b612b248482856128a5565b509392505050565b600082601f830112612b4157612b40612628565b5b8135612b51848260208601612aea565b91505092915050565b60008060008060808587031215612b7457612b73612353565b5b6000612b82878288016125a9565b9450506020612b93878288016125a9565b9350506040612ba4878288016124f4565b925050606085013567ffffffffffffffff811115612bc557612bc4612358565b5b612bd187828801612b2c565b91505092959194509250565b60008060408385031215612bf457612bf3612353565b5b600083013567ffffffffffffffff811115612c1257612c11612358565b5b612c1e85828601612778565b9250506020612c2f858286016126fa565b9150509250929050565b600060208284031215612c4f57612c4e612353565b5b6000612c5d848285016126fa565b91505092915050565b60008060408385031215612c7d57612c7c612353565b5b6000612c8b858286016125a9565b9250506020612c9c858286016125a9565b9150509250929050565b612caf816126d9565b82525050565b6000602082019050612cca6000830184612ca6565b92915050565b7f414c52454144592057484954454c495354454421212100000000000000000000600082015250565b6000612d06601683612423565b9150612d1182612cd0565b602082019050919050565b60006020820190508181036000830152612d3581612cf9565b9050919050565b7f57484954454c49535420434c4f53454421212100000000000000000000000000600082015250565b6000612d72601383612423565b9150612d7d82612d3c565b602082019050919050565b60006020820190508181036000830152612da181612d65565b9050919050565b7f4e487b7100000000000000000000000000000000000000000000000000000000600052602260045260246000fd5b60006002820490506001821680612def57607f821691505b60208210811415612e0357612e02612da8565b5b50919050565b7f4552433732313a20617070726f76616c20746f2063757272656e74206f776e6560008201527f7200000000000000000000000000000000000000000000000000000000000000602082015250565b6000612e65602183612423565b9150612e7082612e09565b604082019050919050565b60006020820190508181036000830152612e9481612e58565b9050919050565b7f4552433732313a20617070726f76652063616c6c6572206973206e6f7420746f60008201527f6b656e206f776e6572206e6f7220617070726f76656420666f7220616c6c0000602082015250565b6000612ef7603e83612423565b9150612f0282612e9b565b604082019050919050565b60006020820190508181036000830152612f2681612eea565b9050919050565b7f4d494e5420495320504155534544212121000000000000000000000000000000600082015250565b6000612f63601183612423565b9150612f6e82612f2d565b602082019050919050565b60006020820190508181036000830152612f9281612f56565b9050919050565b60008160601b9050919050565b6000612fb182612f99565b9050919050565b6000612fc382612fa6565b9050919050565b612fdb612fd682612556565b612fb8565b82525050565b6000612fed8284612fca565b60148201915081905092915050565b7f41444452455353204e4f542057484954454c4953544544212121000000000000600082015250565b6000613032601a83612423565b915061303d82612ffc565b602082019050919050565b6000602082019050818103600083015261306181613025565b9050919050565b7f4d494e544544204f555421212100000000000000000000000000000000000000600082015250565b600061309e600d83612423565b91506130a982613068565b602082019050919050565b600060208201905081810360008301526130cd81613091565b9050919050565b7f4d494e54454420414c5245414459212121000000000000000000000000000000600082015250565b600061310a601183612423565b9150613115826130d4565b602082019050919050565b60006020820190508181036000830152613139816130fd565b9050919050565b7f4e487b7100000000000000000000000000000000000000000000000000000000600052601160045260246000fd5b600061317a826124d3565b91507fffffffffffffffffffffffffffffffffffffffffffffffffffffffffffffffff8214156131ad576131ac613140565b5b600182019050919050565b7f4552433732313a2063616c6c6572206973206e6f7420746f6b656e206f776e6560008201527f72206e6f7220617070726f766564000000000000000000000000000000000000602082015250565b6000613214602e83612423565b915061321f826131b8565b604082019050919050565b6000602082019050818103600083015261324381613207565b9050919050565b7f4552433732313a20696e76616c696420746f6b656e2049440000000000000000600082015250565b6000613280601883612423565b915061328b8261324a565b602082019050919050565b600060208201905081810360008301526132af81613273565b9050919050565b7f4552433732313a2061646472657373207a65726f206973206e6f74206120766160008201527f6c6964206f776e65720000000000000000000000000000000000000000000000602082015250565b6000613312602983612423565b915061331d826132b6565b604082019050919050565b6000602082019050818103600083015261334181613305565b9050919050565b7f4f776e61626c653a206e6577206f776e657220697320746865207a65726f206160008201527f6464726573730000000000000000000000000000000000000000000000000000602082015250565b60006133a4602683612423565b91506133af82613348565b604082019050919050565b600060208201905081810360008301526133d381613397565b9050919050565b7f4552433732313a207472616e736665722066726f6d20696e636f72726563742060008201527f6f776e6572000000000000000000000000000000000000000000000000000000602082015250565b6000613436602583612423565b9150613441826133da565b604082019050919050565b6000602082019050818103600083015261346581613429565b9050919050565b7f4552433732313a207472616e7366657220746f20746865207a65726f2061646460008201527f7265737300000000000000000000000000000000000000000000000000000000602082015250565b60006134c8602483612423565b91506134d38261346c565b604082019050919050565b600060208201905081810360008301526134f7816134bb565b9050919050565b6000613509826124d3565b9150613514836124d3565b92508282101561352757613526613140565b5b828203905092915050565b600061353d826124d3565b9150613548836124d3565b9250827fffffffffffffffffffffffffffffffffffffffffffffffffffffffffffffffff0382111561357d5761357c613140565b5b828201905092915050565b7f4f776e61626c653a2063616c6c6572206973206e6f7420746865206f776e6572600082015250565b60006135be602083612423565b91506135c982613588565b602082019050919050565b600060208201905081810360008301526135ed816135b1565b9050919050565b7f4552433732313a20617070726f766520746f2063616c6c657200000000000000600082015250565b600061362a601983612423565b9150613635826135f4565b602082019050919050565b600060208201905081810360008301526136598161361d565b9050919050565b7f4552433732313a207472616e7366657220746f206e6f6e20455243373231526560008201527f63656976657220696d706c656d656e7465720000000000000000000000000000602082015250565b60006136bc603283612423565b91506136c782613660565b604082019050919050565b600060208201905081810360008301526136eb816136af565b9050919050565b600081905092915050565b600061370882612418565b61371281856136f2565b9350613722818560208601612434565b80840191505092915050565b600061373a82856136fd565b915061374682846136fd565b91508190509392505050565b600081519050919050565b600082825260208201905092915050565b600061377982613752565b613783818561375d565b9350613793818560208601612434565b61379c81612467565b840191505092915050565b60006080820190506137bc6000830187612568565b6137c96020830186612568565b6137d660408301856125fe565b81810360608301526137e8818461376e565b905095945050505050565b60008151905061380281612389565b92915050565b60006020828403121561381e5761381d612353565b5b600061382c848285016137f3565b91505092915050565b7f4e487b7100000000000000000000000000000000000000000000000000000000600052603260045260246000fd5b7f4e487b7100000000000000000000000000000000000000000000000000000000600052601260045260246000fd5b600061389e826124d3565b91506138a9836124d3565b9250826138b9576138b8613864565b5b828204905092915050565b60006138cf826124d3565b91506138da836124d3565b9250826138ea576138e9613864565b5b828206905092915050565b7f4552433732313a206d696e7420746f20746865207a65726f2061646472657373600082015250565b600061392b602083612423565b9150613936826138f5565b602082019050919050565b6000602082019050818103600083015261395a8161391e565b9050919050565b7f4552433732313a20746f6b656e20616c7265616479206d696e74656400000000600082015250565b6000613997601c83612423565b91506139a282613961565b602082019050919050565b600060208201905081810360008301526139c68161398a565b905091905056fea2646970667358221220d8bc68de3e181d028a211ed4f0afa30e054aa35192b5c170dffb521517fda3c364736f6c63430008090033",
  "linkReferences": {},
  "deployedLinkReferences": {}
}